:100000000C94980C0C94C00C0C94C00C0C94C00C68
:100010000C94C00C0C94C00C0C94C00C0C94C00C30
:100020000C94C00C0C94C00C0C9400210C94722104
:100030000C94C00C0C94C00C0C94C00C0C94C00C10
:100040000C94C00C0C94C00C0C94C00C0C94C00C00
:100050000C94C00C0C94C00C0C94C00C0C940F2489
:100060000C94C00C0C94C00C0C94C00C0C94C00CE0
:100070000C94C00C0C94C00C0C94C00C0C94C00CD0
:100080000C94C9130C94C00C0C94C00C0C94C00CB0
:100090000C94C00C0C94C00C0C94C00C0C94C00CB0
:1000A0000C94C00C0C94C00C0C94C00CD5F08D14A6
:1000B000A1C881CFD9F1AF20002E00596F752073F0
:1000C000656E74206F7574200054686973206D6FBD
:1000D0006E70616C206973204B4F65642E004E6F0B
:1000E000206D6F6E70616C20686572652E002068EF
:1000F00065616C656420736F6D65206865616C7403
:10010000682E00206761696E656420736F6D6520DD
:10011000656E657267792E0020686173206265657F
:100120006E2063757265642E002069732072657697
:10013000697665642E002E00596F75207377697497
:100140006368656420746F200054686973206D6F64
:100150006E70616C206973204B4F65642E004E6F8A
:10016000206D6F6E70616C20686572652E0054683A
:100170006973206D6F6E70616C20697320616C72A1
:1001800065616479206F75742E002773206465663D
:10019000656E73652077656E742075702E00277309
:1001A00020646566656E7365207265616368656469
:1001B00020697473206C696D69742E00284129428E
:1001C00041434B003C524556495645203E78003C41
:1001D000435552452020203E78003C434F4646453B
:1001E00045203E78003C484552422020203E780081
:1001F0005768696368206974656D3F003C535749CF
:10020000544348203E003C4954454D5320203E0075
:10021000454E47002D003C444546454E44203E0097
:10022000454E47002D003C41545441434B203E0075
:10023000576861742077696C6C20796F7520646FE2
:100240003F00207761732064656665617465642E84
:10025000002E004F70706F6E656E742073656E7443
:10026000206F757420002077617320646566656176
:100270007465642E00466F6520004E6F7420656EB5
:100280006F7567682E004C65742074686520626124
:1002900074746C6520626567696E21002C00C8006B
:1002A00000004B00528064000000FA002C00640043
:1002B000000032002C006400000032005280640014
:1002C0000000FA002C00C80000004B0052806400BF
:1002D0000000FA002C006400000032002C006400D2
:1002E00000003200528064000000FA002C00C800B8
:1002F00000004B00528064000000FA002C006400F3
:10030000000032002C0064000000320052806400C3
:100310000000FA006200C800000064005700C80036
:10032000000064005200C800000064004900C800DA
:10033000000064002C00C80000004B0052806400E4
:100340000000FA002C006400000032002C00640061
:1003500000003200528064000000FA002C00C80047
:1003600000004B00528064000000FA002C00640082
:10037000000032002C006400000032005280640053
:100380000000FA002C00C80000004B0052806400FE
:100390000000FA002C006400000032002C00640011
:1003A00000003200528064000000FA004900C800DA
:1003B000000064005200C800000064005700C8003C
:1003C000000064006200C8000000640001804D75F8
:1003D00073742068617665206F6E65206D6F6E7036
:1003E000616C20696E2070617274792E004E6F20EE
:1003F0006D6F6E70616C20686572652E002077618C
:1004000073206D6F76656420746F20626F782E00A4
:10041000426F782069732066756C6C2E004E6F20D9
:100420006D6F6E70616C20686572652E002077615B
:1004300073206D6F76656420746F207061727479BB
:100440002E0050617274792069732066756C6C2E71
:10045000004E6F206D6F6E70616C20686572652E46
:1004600000207761732072656C65617365642E008E
:100470004D7573742068617665206F6E65206D6FB1
:100480006E70616C20696E2070617274792E004705
:10049000616D652073617665642100596F75206216
:1004A0006F756768742061207265766976652E00C5
:1004B00043616E277420636172727920616E7920C6
:1004C0006D6F7265207265766976652E00596F755D
:1004D00020626F75676874206120637572652E00F5
:1004E00043616E277420636172727920616E792096
:1004F0006D6F726520637572652E00596F7520628D
:100500006F75676874206120636F666665652E008D
:1005100043616E277420636172727920616E792065
:100520006D6F726520636F666665652E00596F7525
:1005300020626F75676874206120686572622E00A2
:1005400043616E277420636172727920616E792035
:100550006D6F726520686572622E004E6F74206543
:100560006E6F75676820676F6C642E002100596F8D
:100570007520676F7420004E6F7420656E6F75670D
:100580006820676F6C642E006E6F2E2031206368C8
:10059000616D70696F6E2100326E642073796E74C4
:1005A00068206368616D70696F6E2100337264202A
:1005B0006D7973746963206368616D70696F6E2112
:1005C00000347468206E6174757265206368616DB3
:1005D00070696F6E2100596F752077696C6C2062AD
:1005E0006174746C65207468652000596F752068AB
:1005F00061766520616C6C20746865206D6564614E
:100600006C732E00206C6576656C65642075702EA9
:10061000004C6576656C206973206174206D61788B
:100620002E004E6F7420656E6F75676820676F6C63
:10063000642E004E6F206D6F6E70616C2068657265
:10064000652E003E003C005768696368206D6F6E40
:1006500070616C3F002841294241434B003C424FAE
:100660005820203E003C50415254593E0057686982
:100670006368206F6E653F003C5341564520202043
:100680003E003C52454C454153453E003C4D4F5683
:10069000452020203E003C535441545320203E002E
:1006A000484F4D4500202D3847003C52455649568D
:1006B000453E7800202D3647003C435552452020CA
:1006C0003E7800202D3247003C434F464645453E8C
:1006D0007800202D3447003C4845524220203E7887
:1006E0000042757920776861743F003C425559207B
:1006F0004D4F4E20203E2D3947003C425559204950
:1007000054454D533E0053484F500028422943481A
:10071000414C4C454E4745004152454E41003C4CF2
:10072000564C55503E2D313047003C545241494EB5
:100730003E00444F4A4F003C4152454E413E003C32
:10074000444F4A4F203E003C53484F50203E003C0F
:10075000484F4D45203E00476F2077686572653FE2
:10076000002841294C4F4144002842294E4557005A
:100770004279205265766C6973004D4F4E50414C62
:10078000530020697320776F756E6465642E004690
:100790006F6520002069732064617A65642E0046CD
:1007A0006F6520002064616D6167652E00206469BB
:1007B000642000466F6520004E6F74207665727964
:1007C000206566666563746976652E0053555045ED
:1007D0005220454646454354495645210043524917
:1007E000544943414C204849542100206D6973739A
:1007F00065642E00466F6520002066656C6C206184
:10080000736C6565702E00466F652000496D7072CF
:100810006F70657220757365206F66206974656DF1
:100820002E00596F75277665206265656E206465B8
:100830006665617465642E0020676F6C642E0059D4
:100840006F75277665206561726E65642000596F4B
:10085000757220676F6C642069732066756C6C21FB
:1008600000596F7572206F70706F6E656E742069BD
:10087000732064656665617465642E005468652044
:100880006368616D70696F6E206973206465666569
:10089000617465642E001008F62F2FF60810040806
:1008A000F62F2F7608101008762F2FF60804000078
:1008B0000000000000000000000000000000000038
:1008C0000000000000000000000000FC02FDFDFA36
:1008D000F4E874BABDBDBA74E8F4FAFDFD02FC0098
:1008E000000000000007080B0B0B0B0B080B0B0B99
:1008F0000B080B0B0B0B0B0807000000000000009F
:1009000000804020108804E2F1F1E20488102040C9
:1009100080000000000002050A12F100F0F203F36B
:100920007083B3B38370F303F2F000F1120A05028F
:1009300000000000070809090809080B0B0B0B0849
:1009400009080909080700000000000000000080F5
:1009500040A05050A8A8A8A8A8A85050A040800027
:1009600000000000000008F609EAE96AABAB6BEB97
:10097000EB2BABAB2BABAA29EA09F6080000000071
:100980000007080B0B080B0B080B0B0A0A0A0A0AD4
:100990000A0A0B08070000000000000080804040A9
:1009A0004040404040404040404040408080000047
:1009B000000000040AF506F607A7A707F777B7B700
:1009C00077F707A7A707F606F50A04000000000757
:1009D000080B0A0A0A0A0B080B0B080B0A0A0A0A78
:1009E0000B08070000002F34004D6564616C733AFA
:1009F00000470050617274792069732066756C6CD1
:100A00002E0058454E4155434552005351554541DE
:100A10004D41534B005350594D45524100534C5595
:100A200047414D4D41005345525055524E54005090
:100A30004F4C5445524752414200504543415700A4
:100A40004F4B415244004D494352554E54004B5276
:100A500049424249540043484C4F524F534155522A
:100A60000042554E4E4552494E4100425542424C7D
:100A70005545004245455448524F4E450041554466
:100A8000494F55534500454D505459003E003C00D8
:100A90005768696368206D6F6E70616C3F0020530A
:100AA000002044002041002045002048004C004E1A
:100AB0004F4E450053594E5448004D5953544943E5
:100AC000004E415455524500545950453A000000DB
:100AD0000000003E5B4F5B3E3E6B4F6B3E1C3E7C1E
:100AE0003E1C183C7E3C181C577D571C1C5E7F5ECC
:100AF0001C00183C1800FFE7C3E7FF00182418008B
:100B0000FFE7DBE7FF30483A060E26297929264021
:100B10007F050507407F05253F5A3CE73C5A7F3E4D
:100B20001C1C08081C1C3E7F14227F22145F5F00DF
:100B30005F5F06097F017F006689956A606060607B
:100B40006094A2FFA29408047E040810207E201066
:100B500008082A1C08081C2A08081E101010100C6F
:100B60001E0C1E0C30383E3830060E3E0E060000BD
:100B700000000000005F00000007000700147F1461
:100B80007F14242A7F2A12231308646236495620D0
:100B9000500008070300001C2241000041221C00F5
:100BA0002A1C7F1C2A08083E0808008070300008B4
:100BB00008080808000060600020100804023E5188
:100BC00049453E00427F400072494949462141491A
:100BD0004D331814127F1027454545393C4A494981
:100BE0003141211109073649494936464949291EEB
:100BF00000001400000040340000000814224114DA
:100C000014141414004122140802015909063E412B
:100C10005D594E7C1211127C7F494949363E414153
:100C200041227F4141413E7F494949417F090909AC
:100C3000013E414151737F0808087F00417F410018
:100C40002040413F017F081422417F404040407FC7
:100C5000021C027F7F0408107F3E4141413E7F0914
:100C60000909063E4151215E7F0919294626494955
:100C7000493203017F01033F4040403F1F20402095
:100C80001F3F4038403F6314081463030478040393
:100C90006159494D43007F41414102040810200041
:100CA0004141417F040201020440404040400003B2
:100CB00007080020545478407F284444383844447E
:100CC0004428384444287F385454541800087E0976
:100CD0000218A4A49C787F0804047800447D400096
:100CE0002040403D007F1028440000417F40007CB0
:100CF000047804787C080404783844444438FC18A8
:100D000024241818242418FC7C080404084854548B
:100D1000542404043F44243C4040207C1C204020B8
:100D20001C3C4030403C44281028444C9090907C1F
:100D30004464544C44000836410000007700000031
:100D40004136080002010204023C2623263C1EA173
:100D5000A161123A4040207A3854545559215555D2
:100D60007941215454784121555478402054557983
:100D7000400C1E5272123955555559395454545914
:100D800039555454580000457C410002457D4200CD
:100D900001457C40F0292429F0F0282528F07C54D6
:100DA0005545002054547C547C0A097F49324949F6
:100DB00049323248484832324A4848303A41412163
:100DC0007A3A42402078009DA0A07D3944444439BD
:100DD0003D4040403D3C24FF2424487E4943662B4F
:100DE0002FFC2F2BFF0929F620C0887E09032054F1
:100DF0005479410000447D413048484A32384040EF
:100E0000227A007A0A0A727D0D19317D2629292F4E
:100E100028262929292630484D4020380808080866
:100E200008080808382F10C8ACBA2F102834FA0068
:100E3000007B000008142A142222142A14089500AA
:100E4000220095AA005500AAAA55AA55AA0000009A
:100E5000FF00101010FF00141414FF001010FF000A
:100E6000FF1010F010F0141414FC001414F700FF1D
:100E70000000FF00FF1414F404FC141417101F10DA
:100E8000101F101F1414141F00101010F000000089
:100E9000001F101010101F10101010F01000000094
:100EA000FF101010101010101010FF10000000FFA5
:100EB000140000FF00FF00001F10170000FC04F4E6
:100EC00014141710171414F404F40000FF00F7149E
:100ED000141414141414F700F71414141714101025
:100EE0001F101F141414F4141010F010F000001F41
:100EF000101F0000001F14000000FC140000F01080
:100F0000F01010FF10FF141414FF141010101F0025
:100F1000000000F010FFFFFFFFFFF0F0F0F0F0FF27
:100F2000FFFF0000000000FFFF0F0F0F0F0F3844FE
:100F30004438447C2A2A3E147E02020606027E02BF
:100F40007E0263554941633844443C04407E201E80
:100F50002006027E020299A5E7A5991C2A492A1CAF
:100F60004C7201724C304A4D4D303048784830BC9C
:100F7000625A463D3E494949007E0101017E2A2AC6
:100F80002A2A2A44445F444440514A444040444A47
:100F900051400000FF0103E080FF000008086B6B78
:100FA000083612362436060F090F060000181800FE
:100FB00000001010003040FF0101001F01011E0061
:100FC000191D1712003C3C3C3C00000000002F00A3
:100FD00045002F0048004C564C000000008040A007
:100FE000D01068D49ADA7AF4E810D0A040800000DB
:100FF00000000000779867EDDFB63CBABBAABABB29
:101000003DB6DFED6798670000000814120946A19D
:10101000934C330C0000000C334C93A1460912147E
:101020000800000000008040A0D010E8F4FAFAFAAE
:10103000346810D0A040800000000000007798675E
:10104000EDDFB63DBBBBABBBBB3DB6DFED67986725
:101050000000000814120946A1934C330C00000054
:101060000C334C93A1460912140800E0902874F444
:10107000E89060A0A0A0A0A06090E8F47428906020
:1010800000000C1329ADB7F7C1B269F31FF3E97380
:10109000BFDEE1B7B7AD29130E00000609142E2FED
:1010A000130C0302020202071C332F2E34190F0007
:1010B0000000000060902874F4E890602020202058
:1010C000A06090E8F4742890E000000E1329ADB7FA
:1010D000B7E1C080000000008041AEC1F7B7AD2984
:1010E000130C0000000F19342E2F331C07020202CC
:1010F00002030C132F2E14090600000000002050DC
:10110000A8A8A8A828D028A8A8A8A850200000000F
:10111000000000000000F008F41AEDF63637F6EE95
:101120001DFAF408F00000000000000000000102B9
:10113000050A152B2B2B2B2D160B05020100000089
:101140000000000000002050A8A8A8A828D028A8C7
:10115000A8A8A85020000000000000000000F0082F
:10116000F4FAFDFEFEFFFEFEFDF20AF408F00000B8
:101170000000000000000102050B172F2F2F2F2F5A
:1011800017090A050201000000000000008080002D
:10119000000080800000000000000000000000004F
:1011A0000000008649B6B6C9F6C9D6D6C9F6C8D079
:1011B0009050A020A040800000001F205FBFB7BB60
:1011C000B7BAB7BAB7BBB7BFBFBEBFBFBCBFBEBD64
:1011D000423C00000000000000000000808040B0A1
:1011E00048B4B448B048B4B448300000C02090C8F7
:1011F000D4DAD9D9DADABA7BFAF6EE9EFFFE79862E
:101200007800001F205FBFBFBFBFBFBFBFBFBF5FB2
:101210005C2F170B05020100000000000000008099
:1012200080800000000000000000C020408000001E
:1012300000003048B47A7D7E2EF6FD02FC000000EE
:101240000030488718A601C23C00000000010101DF
:101250001E215FBFB05BBAB45ABAB45B2C130C0347
:10126000000000000000804020C0000000000000DE
:1012700000008080800000000000003CC201A61831
:1012800087483000000000FC02FDFE3E7A757AB40B
:1012900048300000030C132C5BB4BA5AB4BA5BB0EC
:1012A000BF5F211E01010100000000008040A0205E
:1012B000D0E874D4BACAFAFAFA74F4E8D020A0409C
:1012C00080001C225D5C5C836FC68DC68FC78FC794
:1012D0008EC5CEE3DD1DDC23100F000000000000F2
:1012E00001060D130F17172F2D5BBC5F5C5B542895
:1012F0001000000000C02050E834F4FAFAFABA7A7C
:1013000094F4E8D020C00000000000001F609F7F20
:10131000FEFFFBF7F97FFF27DFB76F5EC5789BBA4B
:1013200044382050A8B6595E2D4BBC4737170A13D6
:101330002F110E010201000000000000000000005B
:10134000000080404080000000000000000000001D
:1013500000000000000000001E212A47AD767965DC
:10136000A24179860000000000000000000000009B
:101370000000000000010101010201000000000066
:10138000000000000000000000808000000080409D
:10139000408040408000000000000000000000008D
:1013A000F38C70F9FA99160F6D960906010000008A
:1013B000000000000000000102040302020201021A
:1013C00002010000000000000000000000C02058E2
:1013D000E4DAEA6A54A850A040804080000000008F
:1013E00000000000068956AB5EDF3A3FBE5F5CF34B
:1013F0003CDE0F1EB9669860000000000000215E10
:10140000A0BF5CACB4BFBF5F2C2D14160B0403004F
:10141000000000000000000080408040A05008E470
:101420001AEAE468D020C00000000000609866B9A5
:101430000EF78E7CF300FF00F3FDDE6FDE38619E59
:10144000600000000000010003040B364DA8BB5CE7
:101450005F5FBFA05E2101000000000000008080EF
:10146000800000000000000000008080800000007C
:1014700000000000000182720AF5DACD3D3D3DDD3D
:10148000CAF50A7282010000000000000007080986
:1014900046BD9B87761676879BA546090807000000
:1014A000000000000000000000000000008040403C
:1014B000408000000000000000000000000000F07C
:1014C00008F4FAFDFDFC7DB5FB950D35C20000006A
:1014D000000000000000000102057B8797B77484BC
:1014E0009BA542020100000000000080609068940B
:1014F000EAF2FDFDFDFDFDCDB56ACA9468906080FD
:101500000000806F906F5BB7AF6D5F5F5F6D6F774F
:101510007BBBBE5E6FB7C837C0003748B7BFBFBE22
:101520004EBDBD4E5D5D4EBDBD4EB6BFBFBF5F2063
:101530001F000000806090E8F4FAFAFDFDFDFDFD5B
:10154000FDFDE2DAB46810E0000000805F20DFBF3C
:101550007F7F7F7F7F7F7F7F7F7F7FBFBD5D6B9042
:101560002FC0001F205FBEBEBDBD5E5D5D5E5D5DC8
:101570005E5D5D5EBEBFBFB7483700C02010C814B7
:10158000FAFAFA1ADA34E81060808040A04080004D
:101590000000002156A965D515D5D5D5D7CBA56AAC
:1015A000DD6CF30FFE03FC03FC0000000000016291
:1015B0009CA3BFBF9F5F9FAFBEBF8F6C160B050282
:1015C0000100000040A050A0400000E0106874FA44
:1015D000FAFAFAFA34D408D020C0007C837CC33CE9
:1015E000C8F6F9FAFDFDFDFAF5E35767B55529157B
:1015F0000201000003047B86ADAB9F5F9FBFBFAFBE
:10160000916E010100000000000000000000304861
:10161000B43A1AFAF488B4BADAFA04F8000000000E
:10162000000000000000804FB02FDBD9DFD7DFDBE8
:10163000D9DF2FB04F800000000000000000081725
:101640002822282A282A2A284AA8423807000000E7
:101650000000000000000000807088F4FA9AAA8A56
:10166000F4FA1AEA2A140800000000000000804F73
:10167000B02FDFDFDFDFDFDFDFD92BAC518E0000E3
:1016800000000000000000073842A84A282A2A2843
:101690002A2822281708000000000000000000008F
:1016A0008040A0A0A0A0A04080000000000000009A
:1016B0000000E010A8747ABDFCFBBD7E7EBEFE3E3D
:1016C000DEDDBA7408D0E86890600F102F53ADA625
:1016D000AAAAA6ADB3BFBFBEBD5D5D2E100B171687
:1016E0000906000000000000008040A0A0A0A0A00B
:1016F000A040800000000000000000609068E8D674
:1017000039F6FBFDFEFEFE7EBEDEDE3DFAF4E8109D
:10171000E00000060916172B5C5FBFBFBFBFBFBE4E
:10172000BDBDBDBEBF5F2F100F0000000000000058
:101730000000C020D0505020D0D0D020C0000000E9
:101740000000000000E018245AD4DB541AE51BB452
:101750002DD98671ED52200000000000000007081E
:10176000151D1D15090601000102030100000000FE
:10177000000000000000000000808080C020D0A099
:10178000D0A0D020C0000000000000000000000633
:10179000F906B26CDC9D605A86AE6E9708070000B1
:1017A0000000000000000002050E160806060A04EC
:1017B00003010201000000000000000000708874B6
:1017C000FA7DBDBD8A748A7575758A74887000004B
:1017D0000000000000001FA05AB9EFF7EFFBF9DF8F
:1017E000AF710EB508F00000000000000000205F9F
:1017F000A0BEBD5E5FAEBDBE5F28140B040300003B
:101800000000000000708874FAFD7D7D8A748A757E
:1018100075758A748870000000000000000000BF29
:1018200040BE0FB70FFFFFFFFFB95BAC110E00000A
:10183000000000000000003F40BFB8B75C5B5F5F86
:10184000BFBFA35C230000000000466F652000209E
:101850006E65656473206D6F726520656E65726775
:101860007920746F207573652E0020776F6B65206B
:1018700075702E0020697320666173742061736C2B
:101880006565702E0020736E6170706564206F75E1
:1018900074206F66206974732064617A652E00205D
:1018A0006875727420697473656C6620696E20694E
:1018B00074732064617A652E00080B000202020135
:1018C00000090400000102020000052400100105C7
:1018D00024010101042402060524060001070581F4
:1018E0000310004009040100020A0000000705027D
:1018F00002400000070583024000000403090412AF
:10190000010002EF02014041233680000101020381
:101910000141726475696E6F204C4C4300417264E2
:1019200075696E6F204C656F6E6172646F009035E3
:1019300011241FBECFEFDAE0DEBFCDBF11E0A0E083
:10194000B1E0EAE5FEE602C005900D92A235B107CE
:10195000D9F726E0A2E5B1E001C01D92A338B20795
:10196000E1F71CE0C8E9DCE004C02197FE010E9419
:101970002037C739D107C9F70E9459240C942B3757
:101980000C940000CF93DF9380916B01803118F4A9
:1019900010925C010FC080916D01803110F481E0E4
:1019A00007C080916F01803110F482E001C083E0B4
:1019B00080935C0180915C01833008F03FC090E02F
:1019C00090936A018093690180915C0190E0C091DD
:1019D0006901D0916A018C179D072CF1CC0FDD1F96
:1019E000C559DE4F188219826FE070E080E090E008
:1019F0000E94F7126295607F6F5E6883C0916901F3
:101A0000D0916A0160E071E080E090E00E94F712FE
:101A1000CC0FDD1FC559DE4F69838091690190911C
:101A20006A010196CDCF880F991FFC01E559FE4F41
:101A3000808180935F01DF91CF91089583EF99E0DA
:101A4000DF91CF910C94661F109263011092620196
:101A500010926101109260018091680190E0909372
:101A60006A0180936901803491058CF020E031E0B7
:101A7000320F803491053CF490936A0180936901A0
:101A80002093630104C080549109232FF0CF8091EB
:101A9000690190916A018031910584F020E031E084
:101AA000320F803191053CF490936A018093690173
:101AB0002093620103C04097232FF1CF80916901E9
:101AC00090916A018430910584F020E031E0320F7A
:101AD000843091053CF490936A01809369012093CE
:101AE000610103C00497232FF1CF80916901909188
:101AF0006A011816190634F410926A0110926901ED
:101B0000809360010895EF92FF920F931F93CF93FC
:101B1000DF930E94DB1F10920506109204061092BC
:101B200003061092020681E08093060610920706D3
:101B3000809167010E94D41F81EF99E00E94661F87
:101B400084E490E0909303068093020610920506C9
:101B50001092040689EE99E00E94661F809166014A
:101B60000E94D41F86EE99E00E94661F04E12AE1DC
:101B700048E959E068E070E080E090E00E94711E62
:101B80002AE14AE459E068E070E082E290E00E94D5
:101B9000711E2AE14CEF58E068E070E084E490E0C8
:101BA0000E94711E2AE14EEA58E068E070E086E685
:101BB00090E00E94711E80916401873039F488E0C2
:101BC00090E090936A018093690104C010926A01C9
:101BD000109269012091690130916A0180E390E0DF
:101BE0007C01E21AF30A00E010E0E701F7FE02C010
:101BF000C0E0D0E0C034D1053CF441E0BE01C801F2
:101C00000E9442142196F6CF0F5F1F4F0038110536
:101C100061F71092060681E08093070680916401C7
:101C2000811179C09091FA058091650190FD42C0C3
:101C300081110AC008E028E046EA58E06DE170E052
:101C400089E090E00E94711E80916501813051F41D
:101C500008E028E046EA58E06DE170E08BE290E0B1
:101C60000E94711E80916501823051F408E028E0E5
:101C700046EA58E06DE170E08DE490E00E94711E4C
:101C800080916501833051F408E028E046EA58E08D
:101C90006DE170E08FE690E00E94711E64E670E0F6
:101CA00080E090E0DF91CF911F910F91FF90EF9036
:101CB0000C94D52381110AC008E028E04EE958E0D1
:101CC0006DE170E089E090E00E94711E80916501F5
:101CD000813051F408E028E04EE958E06DE170E011
:101CE0008BE290E00E94711E80916501823051F478
:101CF00008E028E04EE958E06DE170E08DE490E006
:101D00000E94711E80916501833041F608E028E051
:101D10004EE958E0BDCF863050F008E028E046E9B3
:101D200058E06DE170E089E090E00E94711E8091C2
:101D300064018450823050F408E028E046E958E01D
:101D40006DE170E08BE290E00E94711E8091640171
:101D50008150823050F408E028E046E958E06DE117
:101D600070E08DE490E00E94711E809164018330E8
:101D700051F408E028E046E958E06DE170E08FE6B4
:101D800090E00E94711EDF91CF911F910F91FF9003
:101D9000EF9008950E94830DE3EFF5E0108A178617
:101DA00080E390E0928B818B089580915A01882383
:101DB00009F48AC00E94DE181092030610920206EF
:101DC00080E390E0909305068093040680915D0186
:101DD000882351F08CE798E00E94661F809166018D
:101DE0008F5F8093660104C081E698E00E94661FC1
:101DF00087EF95E00E946E1560ED77E080E090E05F
:101E00000E94D52320918A0180918B0190E0820F5E
:101E1000911D20918C01820F911D63E070E00E9462
:101E2000F8366F5F6093530180915D01882339F02C
:101E300080916601689F600D112460935301209189
:101E4000670180915301082E000C990B820F911DA0
:101E50002FEF30E0A901481B590BCA0118161906CB
:101E600094F08FEF809367010E94DE1810920306B2
:101E70001092020680E390E090930506809304069A
:101E80008EE498E02FC00E94DE1890916701809147
:101E90005301890F80936701109203061092020686
:101EA00080E390E090930506809304068FE398E02A
:101EB0000E94661F80915301082E000C990B0E940E
:101EC000E81F88E398E00EC00E94DE181092030617
:101ED0001092020680E390E090930506809304063A
:101EE00082E298E00E94661F87EF95E00E946E15DF
:101EF00060ED77E080E090E00E94D5230E9411130E
:101F000082E08093BD0110925D0190916301109277
:101F10006301809162018295807F50E4959F800DDE
:101F20001124982F1092620180916101880F880F0F
:101F3000890F1092610190916001890F10926001E8
:101F40008093680108950E94DE18E3EFF5E0108A9F
:101F5000178680E390E0928B818B8CE098E00E9462
:101F6000661F87EF95E00E946E1560ED77E080E0D8
:101F700090E00E94D52382E090E090936A018093E4
:101F800069010895E0917901F0E0E559FE4F84A9D7
:101F900081113AC0DF01A45BBF4F8C918330A1F166
:101FA00080A5882389F183E08C930E94DE188091BC
:101FB0007901E82FF0E0EE0FFF1FE559FE4F908109
:101FC00090935F01109203061092020620E330E026
:101FD000309305062093040690917801891304C07C
:101FE00087E098E00E94661F0E94391789EF97E00A
:101FF0000E94661F87EF95E00E946E1560ED77E006
:1020000080E090E00C94D52308951F93CF93DF9345
:102010000E947B1CC0917901D0E0E0917A01F0E050
:10202000C559DE4F2C8D30E0E559FE4F948D6BEA9B
:10203000969F612D1124669570E06F5F7F4FDF01E1
:10204000A05CBF4F8C91680F711D75956795C90194
:102050000E94F8366F5F7F4F2AAD269FC001279FF1
:10206000900D11249093E2018093E101C45BDF4F56
:102070002881213031F4959587959093E2018093E2
:10208000E101E45BFF4F8081813051F48091E101F7
:102090009091E201880F991F9093E2018093E101F2
:1020A00064E670E080E090E00E94F712AB01BC01B2
:1020B0004F5F5F4F6F4F7F4F40935901E091790120
:1020C000F0E0E559FE4F84A990915B01891708F46F
:1020D0003BC2DF01A45BBF4F2C912250223008F499
:1020E00033C24B3030F5891B84AB0E94DE188091DF
:1020F0007901E82FF0E0EE0FFF1FE559FE4F9081C8
:1021000090935F01109203061092020620E330E0E4
:10211000309305062093040690917801891304C03A
:1021200084EF97E00E94661F0E9439178BEE97E0BC
:10213000FFC14B504A3508F007C2891B84AB0E948F
:10214000DE1887EF95E00E946E158091590180316D
:1021500070F488E080935E018091E1019091E2014A
:10216000880F991F9093E2018093E10103C084E0FE
:1021700080935E0160E083EC99E00E94361463E492
:1021800070E080E090E00E94D52360E081EE94E072
:102190000E94361463E470E080E090E00E94D52352
:1021A0001092BE011092C00081E080935C0111E0AA
:1021B000C0E9D1E090915C0180915E01891748F1FE
:1021C0008091E301882319F01092E30102C010937B
:1021D000E3018091E301882311F087EA01C086EAD8
:1021E0005C988EBD00000DB407FEFDCF5C9A609137
:1021F0005E0170E0CE010E94F836072E000C880BBD
:10220000990B0E94D52380915C018F5F80935C01C4
:10221000D1CF5C9886EA8EBD00000DB407FEFDCFDD
:102220005C9A1092E301809159018031C0F41092C0
:1022300003061092020680E390E0909305068093D7
:1022400004068DED97E00E94661F87EF95E00E94DF
:102250006E1560ED77E080E090E00E94D5230E944B
:10226000DE18E0917901F0E0E559FE4F8089813078
:1022700049F4E0917A01F0E0E559FE4F808982301F
:1022800099F516C0823049F4E0917A01F0E0E55901
:10229000FE4F8089833059F50BC0833009F050C060
:1022A000E0917A01F0E0E559FE4F8089813011F527
:1022B0008091E1019091E201880F991F8230910590
:1022C00014F482E090E09093E2018093E101109297
:1022D00003061092020680E390E090930506809337
:1022E00004068CEC97E020C0833051F505C08130A6
:1022F00039F502C0823021F58091E1019091E2012F
:1023000097FD0196959587959093E2018093E10161
:10231000109203061092020680E390E09093050667
:102320008093040688EB97E00E94661F87EF95E094
:102330000E946E1560ED77E080E090E00E94D5236A
:10234000209159018091E1019091E201203128F41E
:10235000029764F482E090E005C01816190634F084
:1023600081E090E09093E2018093E101E0917A01B5
:10237000F0E0E559FE4F80A52091E1013091E201A6
:10238000482F50E02417350714F010A602C0821B16
:1023900080A70E94DE1880917901E82FF0E0EE0F0F
:1023A000FF1FE559FE4F908190935F011092030645
:1023B0001092020620E330E03093050620930406D5
:1023C00090917801891304C083EB97E00E94661F07
:1023D0000E9439178DEA97E00E94661F109203064B
:1023E0001092020688E390E090930506809304061D
:1023F0008091E1019091E2010E94E81F84EA97E058
:102400000E94661F87EF95E00E946E1560ED77E0F1
:1024100080E090E00E94D52364E670E080E090E0E8
:102420000E94F712DC01CB010196A11DB11D809322
:1024300059016FEF680F623008F040C0E0917A01F7
:10244000F0E0E559FE4FDF01A45BBF4F8C91811195
:1024500035C080A5882391F182E08C930E94DE181C
:10246000E0917A01F0E0EE0FFF1FE559FE4F808109
:1024700080935F01109203061092020680E390E0C1
:1024800090930506809304069091790180917701DD
:10249000981304C08FE997E00E94661F0E943917C5
:1024A00084E997E00E94661F87EF95E00E946E1511
:1024B00060ED77E080E090E00E94D52380915901A3
:1024C0008356823008F040C0E0917A01F0E0E5598F
:1024D000FE4FDF01A45BBF4F8C91811135C080A5F9
:1024E000882391F181E08C930E94DE18E0917A01BB
:1024F000F0E0EE0FFF1FE559FE4F808180935F01F2
:10250000109203061092020680E390E09093050675
:10251000809304069091790180917701981304C00B
:102520008FE897E00E94661F0E94391782E897E0C3
:102530000E94661F87EF95E00E946E1560ED77E0C0
:1025400080E090E00E94D523DF91CF911F910C9401
:10255000C20FCF92DF92EF92FF920F931F93CF9310
:10256000DF936C017A018B01C0E0D0E0CE15DF056E
:1025700081F0D8016D918D01D601ED91FC91019012
:10258000F081E02DC6010995892B11F02196EECF3F
:102590007E01C701DF91CF911F910F91FF90EF90C6
:1025A000DF90CF90089580915801E0915601F0910D
:1025B0005701882349F0CF010296909357018093E9
:1025C0005601859194910895CF01029690935701F9
:1025D00080935601808191810895809152010895E0
:1025E0000895089580E090E008950E942637CF92E4
:1025F000DF92EF92FF92611571058105910549F017
:102600006B017C010E941C36A70196010E9489364D
:1026100003C060E070E0CB01FF90EF90DF90CF90BF
:102620000895E1E7F0E080818D7F80831092910032
:10263000469847981092E6010895CF92DF92EF9264
:10264000FF920F931F93CF93DF930E94D3128115B4
:1026500020E8920751F4DF91CF911F910F91FF90E5
:10266000EF90DF90CF900C94111321E02093E601BE
:10267000813020E8920751F48091540190915501E6
:1026800090935701809356010E94D31297FD05C085
:102690002091E501222309F440C02091E401211199
:1026A0003CC021E02093E701EC01DF77209769F43B
:1026B00081E08093E80146983FE9C32E3FE0D32EA6
:1026C000E12CF12CCAEFD0E014C08E0120E030E004
:1026D00060E472E48FE090E0A90198010E948936DD
:1026E00069017A0181E0C81AD108E108F108109265
:1026F000E801E091F105F091F2050995811103C01F
:1027000081E08093E8018091E701882309F43FC0CC
:102710008091E80181113BC003C01092E701C4CF52
:10272000469935C0479A0E94D312009771F09C01D8
:10273000DE010E94DD36DC01CB0129E0B595A795CD
:10274000979587952A95D1F703C08FEF9FEFDC010E
:10275000109290002AE020939100D0929900C092AC
:1027600098008093E9019093EA01A093EB01B09364
:10277000EC0180917100826080937100DF91CF91B4
:102780001F910F91FF90EF90DF90CF9008954798A1
:10279000CACF1F920F920FB60F9211242F933F931F
:1027A0004F935F936F937F938F939F93AF93BF9359
:1027B000EF93FF938091E9019091EA01A091EB01E1
:1027C000B091EC01892B8A2B8B2B81F18091E80150
:1027D00081110BC098B180E4892788B98091E70105
:1027E000882319F088B1805888B98091E9019091C7
:1027F000EA01A091EB01B091EC01181619061A0636
:102800001B06B4F48091E9019091EA01A091EB01DB
:10281000B091EC010197A109B1098093E90190936E
:10282000EA01A093EB01B093EC0102C00E941D13DA
:10283000FF91EF91BF91AF919F918F917F916F9198
:102840005F914F913F912F910F900FBE0F901F906E
:102850001895BC0180E090E00C94D5238FB1809551
:10286000807F669B88601C9B846008956093BE0196
:1028700020E42093C0009093BF008093D10008957E
:102880000C94733690E1282F81E061FD84E060FDB7
:10289000880F62FD8295687F969FD0011124A20F58
:1028A000AF50BE4F9C91982B40FF98279C93089562
:1028B0002F923F924F925F926F927F928F929F9250
:1028C000AF92BF92CF92DF92EF92FF920F931F933E
:1028D000CF93DF93CDB7DEB727970FB6F894DEBF5F
:1028E0000FBECDBF9F838E836A30A1F4DC01559665
:1028F0002C91559751968D919C915297B8E02B9FB2
:10290000800D911D1124EE81FF81928B818B108AA5
:102910001786B5C06D3009F4B2C0AE81BF811F9675
:102920000D911C91509700381105BCF0EE81FF818C
:102930002589422F50E087859089F6E02F9F800DF2
:10294000911D1124AE81BF8150969C938E931F9749
:1029500056962C9121117DC092C0EE81FF81818815
:102960009288F0E48F1691040CF7AE81BF815596E2
:102970003C90C801B5E03B9E800D911D11241816B6
:102980001906A4F6432C512CC401E8E03E9E800DAC
:10299000911D1124181619064CF6AE81BF8154966C
:1029A000BC91BC83EE81FF81F389FD8325E0629FAA
:1029B000B0011124CB018253954F3C011982F301E0
:1029C0002490F981F53009F4212C540128E02B835F
:1029D00020FE03C03D813A8302C08C818A839A81A4
:1029E000911104C0AC81BD81AB17F9F078018E2D37
:1029F000801B8315D0F465018C2D8A19831588F40A
:102A0000E0E8EE16F10448F4F0E4CF16D10428F41F
:102A10004A81B601C7010E9442142FEFC21AD20A9E
:102A2000EBCF3FEFE31AF30AE2CF26948B8181507C
:102A30008B83A40CB51C8111CBCF99819F5F9983A7
:102A4000040D151DD30111963D01963009F0B7CF45
:102A50006DCF6AEF64039001659F300D11242058FB
:102A60003F4F281739075CF4AE81BF81ED91FC918F
:102A700011970190F081E02D6AE0CD01099581E088
:102A800090E027960FB6F894DEBF0FBECDBFDF9162
:102A9000CF911F910F91FF90EF90DF90CF90BF905B
:102AA000AF909F908F907F906F905F904F903F90EE
:102AB0002F9008951F93CF93DF93EC01162F0E9460
:102AC0007336181739F0612FCE01DF91CF911F9126
:102AD0000C947B36DF91CF911F910895E1EFF1E0E7
:102AE00080E0A0E0B8E000800EBC8111012C1197BD
:102AF000A0FDFDCF0192B9F70DB408958091690151
:102B000090916A01803491058CF0E0915E01F0E0D3
:102B1000EF54FE4F20812F5F208380549109803431
:102B20009105C4F790936A018093690180916901CE
:102B300090916A018031910584F0E0915E01F0E0AE
:102B4000E555FE4F20812F5F20834097803191050E
:102B5000CCF790936A01809369018091690190910B
:102B60006A018430910584F0E0915E01F0E0EB555C
:102B7000FE4F20812F5F2083049784309105CCF78E
:102B800090936A01809369018091690190916A0133
:102B900018161906DCF4E0915E01F0E09C01E7569E
:102BA000FE4F2115310561F49C0197FF02C020E022
:102BB00030E0821B930B90936A0180936901089522
:102BC00040814F5F408321503109EBCF0895CF936F
:102BD000DF9380915E0190E020E130E0FC01EE0F98
:102BE000FF1FE559FE4F85599E4FDC0156964C96C6
:102BF0002F3F3105C0F44081642F70E062177307E6
:102C00007CF0E9012F96C617D70754F0B90154E0BC
:102C1000759567955A95E1F76C93421BEC014883D3
:102C2000205F3F4FE5CF30936A0120936901DF9128
:102C3000CF910895E0915E01F0E0E559FE4F86895D
:102C4000813051F4DF01AA5BBF4F8C918D5F8C9373
:102C500016978C918F5F5DC0823089F4DF01AA5B8B
:102C6000BF4F9C919E5F9C9316979C919D5F9C93F8
:102C700092AD9F5F92AF96A59E5F96A7DAC0833014
:102C800081F4DF01AA5BBF4F8C918F5F8C93169705
:102C90008C918D5F8C9382AD8F5F82AF86A58D5FA7
:102CA0005CC0843051F4DF01AA5BBF4F8C918D5F13
:102CB0008C9316978C918F5F0BC0853069F4DF0180
:102CC000AA5BBF4F8C918E5F8C9316978C918E5F11
:102CD0008C9382AD8E5F3EC0863081F4DF01AA5BAB
:102CE000BF4F8C918F5F8C9316978C918D5F8C93D7
:102CF00082AD8D5F82AF86A58F5F2FC0873069F46C
:102D0000DF01AA5BBF4F8C918E5F8C9316978C91DD
:102D10008E5F8C9382AD8F5F87C0883069F4DF014E
:102D2000AA5BBF4F8C918F5F8C9316978C918F5FAE
:102D30008C9382AD8D5F22C0893091F4DF01AA5B54
:102D4000BF4F8C918D5F8C9316978C918E5F8C9377
:102D500082AD8F5F82AF86A58E5F86A781E069C056
:102D60008A3081F4DF01AA5BBF4F8C918E5F8C9318
:102D700016978C918F5F8C9382AD8E5F82AF86A504
:102D80008D5F41C08B3081F4DF01AA5BBF4F8C9116
:102D90008E5F8C9316978C918F5F8C9382AD8D5F35
:102DA00082AF86A58E5F2FC08C3051F4DF01AA5B05
:102DB000BF4F8C918F5F8C9316978C918D5FA9CFAD
:102DC0008D3081F4DF01AA5BBF4F8C918D5F8C93B6
:102DD00016978C918E5F8C9382AD8F5F82AF86A5A4
:102DE0008E5F25C08E3091F4DF01AA5BBF4F8C91BE
:102DF0008D5F8C9316978C918D5F8C9382AD8F5FD6
:102E000082AF86A58F5F86A782E013C08F3091F4D2
:102E1000DF01AA5BBF4F8C918F5F8C9316978C91CB
:102E20008E5F8C9382AD8E5F82AF86A58D5F86A705
:102E300083E0808B0895EBE6F1E080E090E031964E
:102E40008630910589F01786158A138E11A217A274
:102E500015A613AA11AE17AEDF01AB5BBF4F1C92D4
:102E600016961C920196EBCF90936A0180936901AC
:102E7000089580915F01811104C086E89AE00E9464
:102E8000661F80915F01813019F08051803120F4FC
:102E90008DE79AE00E94661F80915F01823019F0F1
:102EA0008052803120F483E79AE00E94661F80916F
:102EB0005F01833019F08053803120F48BE69AE073
:102EC0000E94661F80915F01843019F08054803128
:102ED00020F481E69AE00E94661F80915F018530B0
:102EE00019F08055803120F486E59AE00E94661F33
:102EF00080915F01863019F08056803120F48EE495
:102F00009AE00E94661F80915F01873019F0805718
:102F1000803120F486E49AE00E94661F80915F0170
:102F2000883019F08058803120F480E49AE00E94C3
:102F3000661F80915F01893019F08059803120F43B
:102F40008AE39AE00E94661F80915F018A3019F03F
:102F5000805A803120F48FE29AE00E94661F8091AF
:102F60005F018B3019F0805B803120F486E29AE0BB
:102F70000E94661F80915F018C3019F0805C803167
:102F800020F48DE19AE00E94661F80915F018D30F0
:102F900019F0805D803120F485E19AE00E94661F7F
:102FA00080915F018E3019F0805E803120F48BE0DB
:102FB0009AE00E94661F80915F018F3011F0803F80
:102FC00020F082E09AE00C94661F0895CF93DF937F
:102FD000109203061092020680E390E0909305069B
:102FE0008093040680916401873009F0B3C00E9489
:102FF0001B17E0916501F0E0EE0FFF1FE559FE4F52
:10300000818190E090936A01809369010E947E150E
:103010008091650180935E010E94E7150E941A1657
:10302000109203061092020688E290E09093050643
:103030008093040688EC9AE00E94661FE091650187
:10304000F0E0E559FE4F8089813019F481EC9AE077
:103050000CC0823019F48AEB9AE007C0833019F46F
:1030600084EB9AE002C08FEA9AE00E94661F8EE429
:1030700090E0909303068093020688E290E090939C
:103080000506809304068DEA9AE00E94661FE0918F
:103090006501F0E0E559FE4F848D0E94D41F8AEA55
:1030A0009AE00E94661FE0916501F0E0E559FE4F4D
:1030B000DF01A05CBF4F2C9186A590E0820F911D8F
:1030C000959587950196248DAC01249FC001259F7D
:1030D000900D11240E94E81F80E390E09093030676
:1030E00080930206909305068093040687EA9AE08F
:1030F0000E94661FE0916501F0E0E559FE4F86A54C
:1031000090E0880F991F0E94E81F84EA9AE00E94CD
:10311000661FE0916501F0E0E559FE4F82AD0E9427
:10312000D41F81EA9AE00E94661FE0916501F0E0F9
:10313000E555FE4F80810E94D41F8EE99AE00E94DF
:10314000661FE0916501F0E0EF54FE4F80810E9420
:10315000D41F04C080E99AE00E94661F1092030603
:1031600010920206C8E3D0E0D0930506C09304068F
:10317000E0916501F0E0EE0FFF1FE559FE4F808101
:1031800080935F018EE89AE00E94661F0E943917C3
:1031900082E490E09093030680930206D0930506A4
:1031A000C09304068CE89AE00E94661F8091650136
:1031B00090E00196DF91CF910C94E81F2F923F92FF
:1031C0004F925F926F927F928F929F92AF92BF9237
:1031D000CF92DF92EF92FF920F931F93CF93DF93E3
:1031E0000E94DB1F1092050610920406109203063F
:1031F0001092020610925C0138E0E32EF12C40E1BF
:10320000C42ED12C58E2A52EB12CC0E2D0E062E44D
:10321000262E312C72E6472E512CE8E16E2E712CB1
:1032200020915C01223008F032C3211124C3809127
:10323000770180935E0181E0809306061092070675
:1032400080915E0190E0FC01E559FE4F30A53323EB
:1032500009F4F0C2211112C3D0930306C0930206F1
:10326000D0930506C0930406880F991FFC01E55909
:10327000FE4F808180935F010E943917E0915E01CB
:10328000F0E0E559FE4F86898130E1F480915C01E0
:1032900081110AC008E128E142E058E168E170E0EC
:1032A00080E090E00E94711E80915C01813051F4B9
:1032B00008E128E14AEB57E160E070E088E690E041
:1032C0000E94711EE0915E01F0E0E559FE4F868993
:1032D0008230E1F480915C0181110AC008E128E1AB
:1032E00042E757E168E170E080E090E00E94711EE3
:1032F00080915C01813051F408E128E14AE257E114
:1033000060E070E088E690E00E94711EE0915E014E
:10331000F0E0E559FE4F86898330E1F480915C014D
:1033200081110AC008E128E142EE56E168E170E04F
:1033300080E090E00E94711E80915C01813051F428
:1033400008E128E14AE956E160E070E088E690E0B3
:103350000E94711EE0915E01F0E0E559FE4F868902
:103360008430E1F480915C0181110AC008E128E118
:1033700042E556E168E170E080E090E00E94711E55
:1033800080915C01813051F408E128E14AE056E186
:1033900060E070E088E690E00E94711EE0915E01BE
:1033A000F0E0E559FE4F86898530E1F480915C01BB
:1033B00081110AC008E128E142EC55E168E170E0C2
:1033C00080E090E00E94711E80915C01813051F498
:1033D00008E128E14AE755E160E070E088E690E026
:1033E0000E94711EE0915E01F0E0E559FE4F868972
:1033F0008630E1F480915C0181110AC008E128E186
:1034000042E355E168E170E080E090E00E94711EC7
:1034100080915C01813051F408E128E14AEE54E1E9
:1034200060E070E088E690E00E94711EE0915E012D
:10343000F0E0E559FE4F86898730E1F480915C0128
:1034400081110AC008E128E142EA54E168E170E034
:1034500080E090E00E94711E80915C01813051F407
:1034600008E128E14AE554E160E070E088E690E098
:103470000E94711EE0915E01F0E0E559FE4F8689E1
:103480008830E1F480915C0181110AC008E128E1F3
:1034900042E154E168E170E080E090E00E94711E3A
:1034A00080915C01813051F408E128E14AEC53E15C
:1034B00060E070E088E690E00E94711EE0915E019D
:1034C000F0E0E559FE4F86898930E1F480915C0196
:1034D00081110AC008E128E142E853E168E170E0A7
:1034E00080E090E00E94711E80915C01813051F477
:1034F00008E128E14AE353E160E070E088E690E00B
:103500000E94711EE0915E01F0E0E559FE4F868950
:103510008A30E1F480915C0181110AC008E128E160
:1035200042EF52E168E170E080E090E00E94711E9D
:1035300080915C01813051F408E128E14AEA52E1CE
:1035400060E070E088E690E00E94711EE0915E010C
:10355000F0E0E559FE4F86898B30E1F480915C0103
:1035600081110AC008E128E142E652E168E170E019
:1035700080E090E00E94711E80915C01813051F4E6
:1035800008E128E14AE152E160E070E088E690E07D
:103590000E94711EE0915E01F0E0E559FE4F8689C0
:1035A0008C30E1F480915C0181110AC008E128E1CE
:1035B00042ED51E168E170E080E090E00E94711E10
:1035C00080915C01813051F408E128E14AE851E141
:1035D00060E070E088E690E00E94711EE0915E017C
:1035E000F0E0E559FE4F86898D30E1F480915C0171
:1035F00081110AC008E128E142E451E168E170E08C
:1036000080E090E00E94711E80915C01813051F455
:1036100008E128E14AEF50E160E070E088E690E0E0
:103620000E94711EE0915E01F0E0E559FE4F86892F
:103630008E30E1F480915C0181110AC008E128E13B
:1036400042EB50E168E170E080E090E00E94711E82
:1036500080915C01813051F408E128E14AE650E1B3
:1036600060E070E088E690E00E94711EE0915E01EB
:10367000F0E0E559FE4F86898F30E1F480915C01DE
:1036800081110AC008E128E142E250E168E170E0FE
:1036900080E090E00E94711E80915C01813051F4C5
:1036A00008E128E14AED5FE060E070E088E690E044
:1036B0000E94711E80915C01811109C0D0930306A4
:1036C000C093020670920506609204060AC081301B
:1036D00041F4109203061092020610920506109211
:1036E0000406E0915E01F0E0E954FE4F80818130F4
:1036F00021F48DE391E00E94811FE0915E01F0E0F2
:10370000E954FE4F8081823021F485E491E00E94EB
:10371000811FE0915E01F0E0E954FE4F808183302B
:1037200021F48BE491E00E94811F80915C01811162
:1037300009C05092030640920206D0930506C0933A
:1037400004060AC0813041F430920306209202063A
:10375000F0920506E092040686ED9FE00E94661F47
:10376000E0915E01F0E0E559FE4F848D0E94D41F88
:1037700080915C01811109C0D0930306C0930206B9
:10378000B0920506A09204060AC0813041F410925E
:10379000030610920206D0920506C092040684ED3C
:1037A0009FE00E94661FE0915E01F0E0E559FE4F48
:1037B00080A50E94D41F82ED9FE00E94661FE091C9
:1037C0005E01F0E0E559FE4F82A10E94D41F809176
:1037D0005C0181110BC08CE590E09093030680930F
:1037E0000206B0920506A09204060CC0813051F486
:1037F0008CE390E09093030680930206D092050636
:10380000C092040680ED9FE00E94661FE0915E0179
:10381000F0E0E559FE4F84A90E94D41F8EEC9FE092
:103820000E94661FE0915E01F0E0E559FE4F86A51B
:103830000E94D41F00E010E080E3882E912C41E02C
:10384000B401C8010E9442149FEF891A990A80E4CA
:1038500088169104A1F70F5F1F4F0038110561F71B
:103860001092060691E09093070680915C018F5FAD
:1038700080935C01D5CC80917801DBCC109203065B
:1038800010920206F0920506E0920406EDCCDF915C
:10389000CF911F910F91FF90EF90DF90CF90BF904D
:1038A000AF909F908F907F906F905F904F903F90E0
:1038B0002F9008950E94DE1880917901E82FF0E0A2
:1038C000EE0FFF1FE559FE4F908190935F0110921C
:1038D00003061092020620E330E0309305062093A1
:1038E000040690917801891304C08AE498E10E944B
:1038F000661F0C94391764E670E080E090E00E9447
:10390000F712DC01CB010196A11DB11D282F809378
:103910005901E0917901F0E0E559FE4FDF01A45B28
:10392000BF4F8C91823009F04FC02333E0F5948D66
:10393000292F30E06BEA969F612D1124669570E087
:103940006F5F7F4F1C978C91680F711D7595679500
:10395000C9010E94F8366F5F7F4F22AD269FC001DC
:10396000279F900D1124009711F481E090E090932F
:10397000E2018093E10180A52091E1013091E20113
:10398000482F50E02417350714F010A602C0821B00
:1039900080A784A990915B01891B84AB0E945A1C6B
:1039A0008FE998E105C01C920E945A1C85E898E1B5
:1039B0000E94661F87EF95E00E946E1560ED77E02C
:1039C00080E090E00E94D523E0917901F0E0E55994
:1039D000FE4FDF01A45BBF4F8C918330E1F48091F7
:1039E0005901833328F40E945A1C84E798E107C0E8
:1039F0001C9286A584AB0E945A1C8AE698E10E941C
:103A0000661F87EF95E00E946E1560ED77E080E01D
:103A100090E00E94D523E0917901F0E0E559FE4F56
:103A200084A990915B018917A8F4882399F014AABE
:103A30000E945A1C8FE498E10E94661F87EF95E070
:103A40000E946E1560ED77E080E090E00E94D52343
:103A50000C94C20F08952091F001211103C08FEF43
:103A60009FEF08955FB7F89422E02093E90020913A
:103A7000F20030E01216130614F421E030E0422F79
:103A8000FC0184E6415038F028988093EF01909132
:103A9000F1009193F7CF2115310521F08091F200CB
:103AA000882319F05FBFC90108958BE68093E80071
:103AB000F9CF2FB7F89483E08093E9009091E80064
:103AC000892F807295FF04C09091F20080E4891BD9
:103AD0002FBF0895CF93DF931F92CDB7DEB76983D1
:103AE000DC01ED91FC910280F381E02D41E050E09A
:103AF000BE016F5F7F4F09950F90DF91CF910895C1
:103B000083E08093E9008091F200882319F08AE332
:103B10008093E80008950E94591D90E00895CF9386
:103B2000DF931F92CDB7DEB7FC018485958597FDA5
:103B300005C02FEF3FEF358724870BC0CE010196DC
:103B40000E942B1D019719F4898190E002C08FEF2C
:103B50009FEF0F90DF91CF9108950F931F93CF9315
:103B6000DF931F92CDB7DEB78C01FC01848595856C
:103B700097FF0EC0CE0101960E942B1D019719F4EC
:103B8000898190E002C08FEF9FEFF80195878487CD
:103B9000F801848595850F90DF91CF911F910F914A
:103BA0000895FC018485958597FD0BC09FB7F89417
:103BB00082E08093E9008091F2009FBF90E001963F
:103BC00008959FB7F89482E08093E9008091F20015
:103BD0009FBF90E008958F929F92AF92BF92CF9235
:103BE000DF92EF92FF920F931F93CF93DF936C01BD
:103BF0007B018A0180910701882309F45CC08091D0
:103C0000F001882309F457C08091EE0180FF05C0C0
:103C10008091E00082608093E000E801B12C8AEF9F
:103C2000A82E93E0892E2AE3922E209711F4BB2030
:103C3000D9F10E94591D81110AC0AA94AA20D9F174
:103C400061E070E080E090E00E94D523EECF282F65
:103C500030E0C217D3070CF48C2F9FB7F8948092F2
:103C6000E9002091E80025FF1DC0282F30E0C21B8D
:103C7000D30BF701815020F041914093F100FACF2E
:103C8000E20EF31EBB2019F09092E8000AC080916A
:103C9000E80085FD07C09092E800BB24B39420970C
:103CA00009F0B12C9FBFC1CF5D9884E68093ED01F0
:103CB0001016110644F081E090E0F60193838283B0
:103CC00080E090E001C0C801DF91CF911F910F917A
:103CD000FF90EF90DF90CF90BF90AF909F908F902C
:103CE00008952F923F924F925F926F927F928F92A0
:103CF0009F92AF92BF92CF92DF92EF92FF920F937B
:103D00001F93CF93DF93CDB7DEB72A970FB6F89402
:103D1000DEBF0FBECDBF5A01822E912C9401280F19
:103D2000391F37FDBAC0803891050CF0B6C09B0131
:103D3000200F311D37FDB1C0603471050CF0ADC0EE
:103D4000AB0177FF04C044275527461B570B47702C
:103D500055279B0177FF02C0295F3F4FE3E0359570
:103D60002795EA95E1F777FF08C02150310968E00F
:103D700070E0FB01E41BF50BAF01202E2694269486
:103D80002694312C077019F0FFEF2F1A3F0A220EEC
:103D9000331E39017694762C662477946794680EE6
:103DA000791EE12CF12C00E010E0B30160587F4F48
:103DB0007A87698768E070E0FB01E41BF50BFA8302
:103DC000E9832216330609F468C02830310509F466
:103DD00064C02F3FFFEF3F070CF454C0E985FA851C
:103DE000E00FF11FBF016F507E4F7C836B83D801C2
:103DF000A60DB71DAF50BE4F6C0160E070E06815B6
:103E000079050CF03FC0E0E8CE16D10409F43AC0C1
:103E1000D7FC2CC02F3FFFEF3F0709F43AC0FB014E
:103E2000EE0DFF1DEA0DFB1DE491042E01C0EE0F07
:103E30000A94EAF7FC91EF2BEC9341155105B1F090
:103E40002730310599F0FB01EE0DFF1DEA0DFB1D3A
:103E5000E4914E2E512C098002C0559447940A9447
:103E6000E2F7EB81FC815080452840826F5F7F4FF5
:103E7000EB81FC813196FC83EB83FFEFCF1ADF0AE5
:103E80001196BDCF2F5F3F4F00581F4FE80CF91C14
:103E900098CF41155105B9F6E9CF2A960FB6F89497
:103EA000DEBF0FBECDBFDF91CF911F910F91FF906D
:103EB000EF90DF90CF90BF90AF909F908F907F90CA
:103EC0006F905F904F903F902F9008950F931F93A6
:103ED000CF93DF938C01C0E0D0E0F801EC0FFD1F21
:103EE0006491662341F083EF95E00E945814892B7A
:103EF00011F02196F2CFCE01DF91CF911F910F915A
:103F00000895009769F0FC0101900020E9F73197CE
:103F1000AF01481B590BBC0183EF95E00C94A9122B
:103F200080E090E008958F929F92AF92BF920F939E
:103F30001F93CF93DF93CDB7DEB7A1970FB6F89459
:103F4000DEBF0FBECDBF19A2423008F44AE08E0199
:103F50000F5D1F4F842E912CA12CB12CA501940133
:103F60000E94BB36E62FB901CA0101501109EA309F
:103F700014F4E05D01C0E95CD801EC93232B242B01
:103F8000252B61F7C8010E94811FA1960FB6F894F6
:103F9000DEBF0FBECDBFDF91CF911F910F91BF90BC
:103FA000AF909F908F900895682F70E080E090E030
:103FB0004AE00C94931F80E0E1EFF1E081118FEF74
:103FC000002481938193819381930394D1F7089581
:103FD000CF92DF92EF92FF92CF93DF936C01990F14
:103FE000EE08FF08F7FE19C06DE283EF95E00E942E
:103FF0005814EC0166277727CB016C197D098E09CF
:104000009F094AE00E94931F8C0F9D1FDF91CF9163
:10401000FF90EF90DF90CF9008954AE0C701B6017E
:10402000DF91CF91FF90EF90DF90CF900C94931F92
:104030002091FD05282329F49091FC05982381E027
:1040400009F480E0089580910E0681110DC082E090
:1040500080930A0684E080930B0610920D0610925E
:104060000C0681E080930E068AE096E00895409168
:1040700080065091810620917E0630917F0642177E
:104080005307B4F49091E8009570E1F39091E80043
:1040900092FD19C08093F100809180069091810675
:1040A00001968F739927892B19F48EEF8093E8007E
:1040B000809180069091810601969093810680936D
:1040C000800681E0089580E00895DF92EF92FF92EC
:1040D0000F931F93CF93DF93D82EF92EE42E062F44
:1040E00010E0C8010196880F0E94372083E00E94EB
:1040F0003720CD2DDF2D0C0F1D1FC017D10789F0E4
:10410000E7FE03C0FE01849101C088810E94372030
:10411000F82E80E00E9437208F2121968111EDCF6B
:1041200001C081E0DF91CF911F910F91FF90EF903F
:10413000DF900895DF92EF92FF920F931F93CF933A
:10414000DF93D82E8A017B01E40EF51EEB01CE151C
:10415000DF0571F0D7FE03C0FE01849101C08881A4
:104160000E94372021968111F2CF8FEF9FEF01C07F
:10417000C801DF91CF911F910F91FF90EF90DF90D9
:104180000895615030F02091F100FC0120830196E8
:10419000F8CF289884E68093EF0108950F931F933A
:1041A000CF93DF931F92CDB7DEB782E0898342E4DD
:1041B00050E069EB78E180E80E949A200E94232079
:1041C000DC0112960D911C9113970115110589F0D0
:1041D000D801ED91FC910280F381E02DBE016F5F6B
:1041E0007F4FC801099597FD04C0F801008511852E
:1041F000ECCF89810F90DF91CF911F910F9108959E
:104200001F920F920FB60F9211248F939F9380915C
:10421000E1009091E100937F9093E10083FF0FC054
:104220001092E90091E09093EB001092EC0092E381
:104230009093ED001092F00198E09093F00082FFCF
:1042400020C093E09093E9009091F200992319F037
:104250009AE39093E8009091ED01992339F09091C1
:10426000ED0191509093ED01992389F19091EF0127
:10427000992339F09091EF0191509093EF01992398
:1042800041F184FF10C08091E2008E7E81608093B6
:10429000E2008091E1008F7E8093E1008091EE0149
:1042A0008E7E806111C080FF16C08091E2008E7EFC
:1042B00080618093E2008091E1008E7E8093E10036
:1042C0008091EE018E7E81608093EE0104C05D9A44
:1042D000CDCF289AD6CF9F918F910F900FBE0F9080
:1042E0001F9018951F920F920FB60F921124CF9224
:1042F000DF92EF92FF920F931F932F933F934F9371
:104300005F936F937F938F939F93AF93BF93EF933D
:10431000FF93CF93DF93CDB7DEB76C97DEBFCDBFF2
:104320001092E9008091E80083FFFBC168E0CE01B4
:1043300045960E94C12082EF8093E8008D8987FF17
:1043400005C09091E80090FFFCCF03C09EEF9093D2
:10435000E800982F907609F0C6C09E894F89588D45
:104360002F89F88C91110CC0803829F4809178063F
:104370008093F10002C01092F1001092F10045C14B
:10438000913051F4811141C14130510509F03DC1D5
:10439000809178068D7F0BC0933061F4811135C117
:1043A0004130510509F031C18091780682608093D7
:1043B00078062BC1953049F48091E80080FFFCCF4E
:1043C000822F80688093E30020C1963009F05EC0A0
:1043D0000B8D1C8D22E01092E90010928106109244
:1043E0008006F21232C010927F0610927E060E9462
:1043F000CE2099E0BE016F5F7F4FDB01E92F1D9258
:10440000EA95E9F79983FA8291E09E8390EA98878A
:104410009AEF99872091800630918106275F3F4F60
:104420003C832B838D831092E900109281061092B9
:10443000800610937F0600937E0649E050E080E0FE
:104440000E949A200E94CE20E0C010937F06009325
:104450007E060E942320DC0112960D911C91139779
:104460000115110509F4BBC0D801ED91FC91048040
:10447000F581E02DBE016B5E7F4FC8010995009765
:1044800009F0C7C0F80100851185EACF973009F41B
:1044900045C1983021F481E08093F100B6C0993095
:1044A00009F0B3C0837009F039C1E7E3F1E081E0BE
:1044B00031E096E32081211109C08EE78093EA0064
:1044C0001092EA008F898093F0019FC08093E900E9
:1044D0003093EB0021912093EC009093ED008F5FDF
:1044E000873041F7EACF8B8D9C8D1092E9001092B6
:1044F00081061092800690937F0680937E06898DB8
:10450000811153C08E899D89913A49F4813209F015
:1045100005C147E050E060E071E080E0BBC091324F
:1045200009F0FCC0833269F48F89988DA0E0B0E077
:104530008093080190930901A0930A01B0930B01A5
:1045400064C0803269F48091E80082FFFCCF67E0AC
:1045500080E091E00E94C1208BEF8093E80055C07D
:10456000823209F052C08F8980930701EEEFFFE796
:10457000859194918B3F9C4D19F0E0E0F8E002C0EA
:10458000EEEFFAE08091000190910101A09102010B
:10459000B0910301803B9440A105B10509F09EC094
:1045A0008091070180FF79C099C00E942320FC01FF
:1045B000028113810115110509F4B0C0D801ED91F4
:1045C000FC910190F081E02DBE016B5E7F4FC80130
:1045D000099581111AC0F80100851185EBCFF1E032
:1045E000FF1609F44EC0F3E0FF1298C08F898823AC
:1045F00009F44AC0823089F440E860E18DE199E134
:104600000E946520882309F489C08EEF8093E8001A
:1046100088C018161906CCF381C0813029F440E80F
:104620006BE081E199E1ECCF833009F077C00E9423
:104630002320DC011296ED90FC9013978E010F5F02
:104640001F4F6801E114F10479F0D701ED91FC915D
:104650000680F781E02DB801C7010995080F111DEB
:10466000F701E084F184EECFD8011C92F6010190AD
:104670000020E9F73197BF016C197D0940E0C601C0
:10468000BFCF6FEF78E102C06BEF78E1FB0144919F
:1046900050E080E80E949A20B8CFEE3F2AE0F2076F
:1046A00051F0808191818737A7E79A0721F0909395
:1046B000FF0A8093FE0A87E797E7918380838091C2
:1046C0006000809382069BE088E10FB6F894A8957D
:1046D000809360000FBE9093600097CF808191819E
:1046E0008737974709F091CFA8958091600088613E
:1046F000809360008091820680936000EE3FBAE074
:10470000FB0739F08091FE0A9091FF0A9183808324
:104710007CCF1092FF0A1092FE0A77CF81E280933D
:10472000EB006C960FB6F894DEBF0FBECDBFDF91E5
:10473000CF91FF91EF91BF91AF919F918F917F9119
:104740006F915F914F913F912F911F910F91FF902A
:10475000EF90DF90CF900F900FBE0F901F901895A5
:104760003FB7F89480917A0690917B06A0917C06E1
:10477000B0917D0626B5A89B05C02F3F19F0019684
:10478000A11DB11D3FBFBA2FA92F982F8827820FD7
:10479000911DA11DB11DBC01CD0142E0660F771F27
:1047A000881F991F4A95D1F708958F929F92AF92D3
:1047B000BF92CF92DF92EF92FF926B017C010E9439
:1047C000B0234B015C01C114D104E104F104F1F008
:1047D0000E94B023DC01CB0188199909AA09BB0901
:1047E000883E9340A105B10570F321E0C21AD108BB
:1047F000E108F10888EE880E83E0981EA11CB11C28
:10480000C114D104E104F10419F7DDCFFF90EF905A
:10481000DF90CF90BF90AF909F908F9008951F92A0
:104820000F920FB60F9211242F933F938F939F9364
:10483000AF93BF938091740690917506A091760610
:10484000B09177063091790623E0230F2D3720F4BD
:104850000196A11DB11D05C026E8230F0296A11DDA
:10486000B11D209379068093740690937506A093EA
:104870007606B093770680917A0690917B06A09198
:104880007C06B0917D060196A11DB11D80937A062C
:1048900090937B06A0937C06B0937D06BF91AF9169
:1048A0009F918F913F912F910F900FBE0F901F906E
:1048B0001895789484B5826084BD84B5816084BD88
:1048C00085B5826085BD85B5816085BD80916E00AE
:1048D000816080936E0010928100809181008260DF
:1048E000809381008091810081608093810080911C
:1048F000800081608093800080919100826080932D
:10490000910080919100816080939100809190004E
:104910008160809390008091C10084608093C10089
:104920008091C10082608093C1008091C10081604C
:104930008093C1008091C30081608093C300809107
:10494000C00082608093C0008091C200816080932B
:10495000C20080917A00846080937A0080917A000E
:10496000826080937A0080917A00816080937A00DF
:1049700080917A00806880937A001092F001109202
:1049800078061092EE018091D70081608093D70065
:1049900080EA8093D80089B5806189BD89B582603D
:1049A00089BD09B400FEFDCF61E070E080E090E0D9
:1049B0000E94D5238091D8008F7C80618093D8009D
:1049C0008091E000807F8093E0008091E1008E7E06
:1049D0008093E1008DE08093E200559A209A81EC6B
:1049E00080937C0085B1806F85B984B1877E84B95E
:1049F00084B1876E84B95E9A5F988AB1806D8AB9F6
:104A0000769A6E9881B3806F81BB899880B38D70E0
:104A100080BB80E58CBD81E08DBD85E090E00E948B
:104A200029145F9A85E090E00E9429145E985C98B2
:104A3000ECEAF0E089EB90E024912EBD00000DB48B
:104A400007FEFDCF31968E179F07B1F75C9A81E87C
:104A500080936400809165008160809365000E946E
:104A60002E1482FF3CC02D980E942E148478843826
:104A700031F00E942E148471843161F516C02D9A94
:104A800088EC90E00E9429142F986FEF82E090E06C
:104A90000E945A1584EF91E00E9429142F9A0E94D7
:104AA0002E1484788438D9F3E4CF2D9A88EC90E0E2
:104AB0000E9429142E9860E082E090E00E945A152E
:104AC00084EF91E00E9429142E9A0E942E14847182
:104AD0008431D9F388EC90E00E942914C0CF2D9A3C
:104AE00082E090E00E944014882331F03E9A3F9A81
:104AF00081E08093520104C0109252013E983F9889
:104B00001092C00088E08093C1001092C300109200
:104B1000BF001092CF000E942E14803839F42E98D6
:104B200080916400806280936400FFCF8091640074
:104B30008E7F8093640080917A00806480937A00F5
:104B400080917A0086FDFCCFC0917800D0917900E9
:104B50000E94B0238E0120E030E098011127002749
:104B6000600F711F821F931F2091640021602093AA
:104B70006400611571058105910511F00E946A3686
:104B800081E08093090682E48093FE0584E08093AF
:104B9000BD01C0E3D0E0A8E3EA2EF12C4424439405
:104BA000512C02E010E0FBEC2F2E332433942FB76E
:104BB000F8948091740690917506A0917606B09154
:104BC00077062FBF2091FF05B82EB21A2B2D3091FA
:104BD0000006332331F0B0920106109200060C94C7
:104BE00069343091FE05B31658F42F5F231710F087
:104BF0000C94693481E083BF889513BE0C946934AA
:104C000021E0209300068093FF058091FA059091A2
:104C1000FB0501969093FB058093FA058091FC05B6
:104C20008093FD050E942E148093FC058091BE01A7
:104C3000882339F081508093BE01882311F40C94AD
:104C400073340E94DB1F1092050610920406109226
:104C50000306109202068091BD01823009F4B3C7A9
:104C600038F4882379F0813009F408C10C94653454
:104C7000833011F40C94C633843011F40C94EA336D
:104C80000C9465340E941B17E1E7F1E083E090E0AB
:104C9000108211820196329686309105C9F7909361
:104CA0006A018093690180915D01811170C063E0A8
:104CB00070E080E090E00E94F712DC01CB010396E7
:104CC000A11DB11D80935C0183E090E090936A0187
:104CD00080936901C0906901D0906A0180915C0164
:104CE00090E08C159D050CF484C06FE070E080E0CE
:104CF00090E00E94F712DC01CB010196A11DB11DCD
:104D0000782E729460EF762280906601912C2FEFBE
:104D1000821A920AB401660F771F680D791D6F5FC2
:104D20007F4FCB01770FAA0BBB0B092C000CAA08F5
:104D3000BB0888169906AA06BB0664F4BC01CD011F
:104D4000681979098A099B090E94F712860E971E35
:104D5000A81EB91EF601EE0FFF1FE559FE4F870C86
:104D60008082C0906901D0906A0160E071E080E0CB
:104D700090E00E94F712F601EE0FFF1FE559FE4F7B
:104D800061838091690190916A0101969FCF809122
:104D90006601811108C081E38093710183E48093EF
:104DA000730185E61DC0813041F485E28093710175
:104DB00087EE8093730189EA13C0823041F489E160
:104DC000809371018BED809373018DE709C083306F
:104DD00049F48FE5809371018FE8809373018FEF21
:104DE000809375018FEF809372018093740180939B
:104DF000760110925E01B0905E0135E03B1570F1D6
:104E00000E94E715CB2CD12CF601EE0FFF1FE559C0
:104E1000FE4F818190E090936A01809369010E9426
:104E20007E150E941A16F601E559FE4F26A5DF01F0
:104E3000A05CBF4F3C91822F90E0830F911D959510
:104E40008795948D989F900D112492A390A7220F7F
:104E500026A724ABB394B0925E01CDCF0E94240D5F
:104E600010925A011092C0011092530110927701D2
:104E700083E08093780181E00C9463349091C001C9
:104E800091112DC08093C001909171009D7F9093EE
:104E90007100809358018CE992E0909357018093C0
:104EA000560190935501809354010E941D130E9456
:104EB000DE181092030610920206D0930506C093E6
:104EC000040686E892E00E94661F87EF95E00E9444
:104ED0006E1560ED77E080E090E00E94D52380E2DF
:104EE0000E941820882329F0D0906501D1100C94DD
:104EF000773480E40E941820882391F0D0906501D7
:104F000042E04D1568F082E0B82EDB100C9481343D
:104F100080916401823010F40C948134D092650148
:104F200088E00E9418208823A1F0D09064018FEFC0
:104F30008D0D833070F461E08CE790E00E943614B0
:104F400023E0D2120C94893481E0809364011092A2
:104F5000650184E00E941820882309F483C560E07D
:104F60008CE790E00E94361463E470E080E090E00B
:104F70000E94D5231092BE011092C00010926A01C7
:104F800010926901B4E06B2E83E0D82E92E0792E66
:104F9000CC24C3948091690190916A0102970CF02E
:104FA00061C5E0917701F0E0E559FE4F80A58823C7
:104FB00041F0E0917801F0E0E559FE4F80A58111C4
:104FC00004C010936A0100936901809164018430E8
:104FD00009F06EC080916501E82FF0E0E559FE4FC1
:104FE0009689911111C010936A01009369010E9482
:104FF000DE181092030610920206D0930506C093A5
:1050000004068EED90E013C020A521111DC0109361
:105010006A01009369010E94DE1810920306109243
:105020000206D0930506C093040689EC90E00E9426
:10503000661F87EF95E00E946E1560ED77E080E0D7
:1050400090E00E94D52334C08093770190935F0154
:1050500010936A01009369010E94DE18E0917701C4
:10506000F0E0EE0FFF1FE559FE4F808180935F0156
:105070001092030610920206D0930506C093040610
:105080008BEB90E00E94661F0E94391789EB90E03D
:105090000E94661F87EF95E00E946E1560ED77E035
:1050A00080E090E00E94D523109264011092650187
:1050B00080916401833009F0D1C18091BF018130BA
:1050C00009F08BC0E0917701F0E0E559FE4FDF0178
:1050D000AA5BBF4F9C91248DE0917801F0E0E559E7
:1050E000FE4FDF01AA5BBF4F8C91448D929F9001D0
:1050F0001124849FC0011124281739072CF05092E5
:105100006A014092690104C010926A01109269011B
:10511000E0916501F0E0E559FE4F80A582A0881579
:1051200011F0811103C00E94A30F57C0882D90E099
:10513000A0E0B0E08694912CA12CB12C88169906A1
:10514000AA06BB0664F4BC01CD01681979098A0975
:105150009B090E94F712860E971EA81EB91E809208
:105160005901E0916501F0E0E559FE4F42A1282D7B
:1051700030E0842F90E050A5851B9109281739074E
:1051800014F040A701C080A60E94DE18E0916501DE
:10519000F0E0EE0FFF1FE559FE4F808180935F0125
:1051A0001092030610920206D0930506C0930406DF
:1051B0000E9439178EEE90E00E94661F87EF95E0FF
:1051C0000E946E1560ED77E080E090E00E94D523AC
:1051D000809163018150809363018091BF0182308F
:1051E00009F065C0E0917701F0E0E559FE4FDF017D
:1051F000AA5BBF4F9C91248DE0917801F0E0E559C6
:10520000FE4FDF01AA5BBF4F8C91448D929F9001AE
:105210001124849FC0011124281739072CF05092C3
:105220006A014092690104C010926A0110926901FA
:10523000E0916501F0E0E559FE4F86A594A9981725
:1052400019F090A5911103C00E94A30F30C084AB48
:10525000E45BFF4F8081833009F410820E94DE18E6
:10526000E0916501F0E0EE0FFF1FE559FE4F8081F0
:1052700080935F011092030610920206D0930506F8
:10528000C09304060E94391783E091E00E94661FD4
:1052900087EF95E00E946E1560ED77E080E090E08A
:1052A0000E94D52380916201815080936201809198
:1052B000BF01833009F067C0E0917701F0E0E55964
:1052C000FE4FDF01AA5BBF4F9C91248DE0917801D6
:1052D000F0E0E559FE4FDF01AA5BBF4F8C91448D92
:1052E000929F90011124849FC0011124281739072F
:1052F0002CF050926A014092690104C010926A0138
:1053000010926901E0916501F0E0E559FE4FDF017F
:10531000A45BBF4F8C91882319F090A5911103C015
:105320000E94A30F30C0833011F486A584ABE45BE8
:10533000FF4F10820E94DE18E0916501F0E0EE0F51
:10534000FF1FE559FE4F808180935F011092030695
:1053500010920206D0930506C09304060E943917E6
:1053600088E191E00E94661F87EF95E00E946E152C
:1053700060ED77E080E090E00E94D52380916101AC
:105380008150809361018091BF01843009F066C033
:10539000E0917701F0E0E559FE4FDF01AA5BBF4FD6
:1053A0009C91248DE0917801F0E0E559FE4FDF01FA
:1053B000AA5BBF4F8C91448D929F90011124849FD2
:1053C000C0011124281739072CF050926A0140922D
:1053D000690104C010926A0110926901E0916501AF
:1053E000F0E0E559FE4F80A5811103C08689811147
:1053F00003C00E94A30F32C0DF01A45BBF4F1C9209
:1054000082A1869580A786A584AB0E94DE18E091D4
:105410006501F0E0EE0FFF1FE559FE4F808180939C
:105420005F011092030610920206D0930506C09306
:1054300004060E94391789E291E00E94661F87EFF7
:1054400095E00E946E1560ED77E080E090E00E94AC
:10545000D523809160018150809360019091640117
:10546000913009F04EC080916501811107C0809193
:105470006301882351F19093BF0108C0813079F412
:1054800080916201882309F17092BF011092650139
:10549000D092640110936A010093690132C0823096
:1054A00039F480916101882381F0D092BF01EECF61
:1054B000833059F490916001992339F06092BF01D3
:1054C0001092650180936401E5CF10936A01009307
:1054D00069010E94DE181092030610920206D09312
:1054E0000506C09304068AE792E00E94661F87EFD4
:1054F00095E00E946E1560ED77E080E090E00E94FC
:10550000D52380916501823061F48091640181111D
:1055100008C010926501C092640110936A01009363
:10552000690180916401823009F08EC0809165012B
:1055300090917701981311C010936A01009369014B
:105540000E94DE181092030610920206D093050600
:10555000C09304068EE691E06BC0E82FF0E0E559B9
:10556000FE4F9689911111C010936A010093690151
:105570000E94DE181092030610920206D0930506D0
:10558000C09304068EE591E053C090A5911111C01F
:1055900010936A01009369010E94DE1810920306BD
:1055A00010920206D0930506C093040689E491E0A8
:1055B0003FC080937701DF01AA5BBF4F9C91248D90
:1055C000E0917801F0E0E559FE4FDF01AA5BBF4FA3
:1055D0008C91448D929F90011124849FC0011124CD
:1055E000281739072CF050926A014092690104C0D3
:1055F00010926A01109269010E94DE18E091770111
:10560000F0E0EE0FFF1FE559FE4F808180935F01B0
:105610001092030610920206D0930506C09304066A
:1056200088E391E00E94661F0E94391786E391E0AB
:105630000E94661F87EF95E00E946E1560ED77E08F
:1056400080E090E00E94D52380916501833061F471
:1056500080916401811108C010936A01009369016F
:105660007092640110926501A0907701EA2DF0E03C
:10567000E559FE4FDF01AA5BBF4F6C91448D7091DD
:105680007801872F90E0DC01A559BE4F4D019D01A7
:105690002A5B3F4FD901BC90D4015C962C91649F4A
:1056A000A0011124B29E90011124A0916901B09132
:1056B0006A01421753071CF0AB2B29F0CEC011979B
:1056C00011F00C944A358091640181119DC0A09223
:1056D000790170937A0186A50E94EC36882319F02F
:1056E00080935B0102C0C0925B01809165018111D2
:1056F00002C00E94051080916501813009F084C0CC
:105700000E947B1CE0917901F0E0E559FE4F94A9DD
:1057100080915B01981708F477C0E45BFF4F8081AC
:105720008250823008F470C063E070E080E090E066
:105730000E94F712AB01BC014E5F5F4F6F4F7F4F6E
:1057400040935901E0917901F0E0E559FE4F84A9B9
:1057500090915B01891B84ABE05CFF4F2081842F1B
:1057600090E0820F911D0A973CF1BAE0B0830E944D
:10577000DE18E0917901F0E0EE0FFF1FE559FE4FD2
:10578000808180935F011092030610920206D093ED
:105790000506C09304060E9439178EE991E00E9425
:1057A000661F87EF95E00E946E1560ED77E080E060
:1057B00090E00E94D52328C0420F40830E94DE184B
:1057C000E0917901F0E0EE0FFF1FE559FE4F808177
:1057D00080935F011092030610920206D093050693
:1057E000C09304060E9439178AE891E00E94661F60
:1057F00087EF95E00E946E1560ED77E080E090E025
:105800000E94D5230E94C20F20917701A22FB0E001
:10581000A559BE4FFD01EA5BFF4F50815C967C911C
:1058200030917801832F90E0DC01A559BE4FFD0136
:10583000EA5BFF4F60815C964C91579FF001112409
:10584000649FA0011124E417F50754F44091690105
:1058500050916A01452B59F028C02A2D372F6B2D06
:105860004091690150916A0141305105F1F4309342
:10587000790120937A01FC01E559FE4F86A50E942B
:10588000EC3680935B0190916401992341F0109371
:105890006A010093690110926401109265018111FF
:1058A00002C0C0925B010E940510E0917701F0E018
:1058B000E559FE4F90A580917801992339F0E82FA2
:1058C000F0E0E559FE4F90A5911104C050926A0195
:1058D00040926901E82FF0E0E559FE4F90A5911143
:1058E0005EC090919701911105C090919801992304
:1058F00009F455C0853009F452C00E94DE18E091C9
:105900007801F0E0E559FE4F868980935F0110929F
:10591000030610920206D0930506C093040685E79D
:1059200092E00E94661F0E94391786E692E00E946C
:10593000661F87EF95E00E946E1560ED77E080E0CE
:1059400090E00E94D523809178018F5F8093780149
:105950000E94DE18E0917801F0E0E559FE4F86895B
:1059600080935F011092030610920206D093050601
:10597000C093040683E592E00E94661F0E943917D7
:1059800081E592E00E94661F87EF95E00E946E1508
:1059900060ED77E080E090E00E94D52310C0809118
:1059A000960181110CC080919701811108C08091EE
:1059B0009801811104C0C0925A010E94D50EE09155
:1059C0007701F0E0E559FE4F90A580919301911188
:1059D00033C0811108C090919401911104C090913D
:1059E0009501992359F190916401943029F16092C5
:1059F00064010E94DE18E0917701F0E0E559FE4F66
:105A0000868980935F011092030610920206D0935C
:105A10000506C09304060E94391782E492E00E94B2
:105A2000661F87EF95E00E946E1560ED77E080E0DD
:105A300090E00E94D5230CC081110AC0809194018E
:105A4000811106C080919501811102C00E94D50E7E
:105A50008091690190916A01019690936A01809307
:105A6000690198CA0E94DE1880916401811154C0B6
:105A7000E0917701F0E0E559FE4FDF01AA5BBF4FEF
:105A800086A56C910E94EC36811101C081E0809363
:105A90005B011092030610920206D0930506C09394
:105AA000040680E392E00E94661F109203061092A3
:105AB0000206F0920506E0920406809165018111CC
:105AC0000FC086E292E00E94661F84E292E00E948C
:105AD000661F80915B010E94D41F80E292E01AC091
